{
  "contractName": "FoodSupplyChain",
  "abi": [
    {
      "inputs": [
        {
          "internalType": "address",
          "name": "manager",
          "type": "address"
        },
        {
          "internalType": "string",
          "name": "_supplyChainTitle",
          "type": "string"
        }
      ],
      "stateMutability": "nonpayable",
      "type": "constructor"
    },
    {
      "inputs": [
        {
          "internalType": "uint256",
          "name": "",
          "type": "uint256"
        }
      ],
      "name": "chains",
      "outputs": [
        {
          "internalType": "string",
          "name": "chainName",
          "type": "string"
        },
        {
          "internalType": "string",
          "name": "productName",
          "type": "string"
        },
        {
          "internalType": "string",
          "name": "productImageLink",
          "type": "string"
        },
        {
          "internalType": "string",
          "name": "ProductImageInformation",
          "type": "string"
        },
        {
          "internalType": "string",
          "name": "chainLocation",
          "type": "string"
        },
        {
          "internalType": "string",
          "name": "tagName",
          "type": "string"
        },
        {
          "internalType": "string",
          "name": "tagInformation",
          "type": "string"
        }
      ],
      "stateMutability": "view",
      "type": "function"
    },
    {
      "inputs": [
        {
          "internalType": "uint256",
          "name": "",
          "type": "uint256"
        }
      ],
      "name": "companyInformations",
      "outputs": [
        {
          "internalType": "string",
          "name": "madeByCompanyName",
          "type": "string"
        },
        {
          "internalType": "string",
          "name": "madeByCompanyLogoLink",
          "type": "string"
        },
        {
          "internalType": "string",
          "name": "madeByCompanyInformation",
          "type": "string"
        },
        {
          "internalType": "string",
          "name": "madeByCompanyLocation",
          "type": "string"
        }
      ],
      "stateMutability": "view",
      "type": "function"
    },
    {
      "inputs": [],
      "name": "madeWith",
      "outputs": [
        {
          "internalType": "string",
          "name": "",
          "type": "string"
        }
      ],
      "stateMutability": "view",
      "type": "function"
    },
    {
      "inputs": [],
      "name": "madeWithInsertedOnChain",
      "outputs": [
        {
          "internalType": "uint256",
          "name": "",
          "type": "uint256"
        }
      ],
      "stateMutability": "view",
      "type": "function"
    },
    {
      "inputs": [],
      "name": "manufactureAddress",
      "outputs": [
        {
          "internalType": "address payable",
          "name": "",
          "type": "address"
        }
      ],
      "stateMutability": "view",
      "type": "function"
    },
    {
      "inputs": [],
      "name": "productArrivalDateInsertedOnChain",
      "outputs": [
        {
          "internalType": "uint256",
          "name": "",
          "type": "uint256"
        }
      ],
      "stateMutability": "view",
      "type": "function"
    },
    {
      "inputs": [],
      "name": "productArrivalDay",
      "outputs": [
        {
          "internalType": "uint256",
          "name": "",
          "type": "uint256"
        }
      ],
      "stateMutability": "view",
      "type": "function"
    },
    {
      "inputs": [],
      "name": "productArrivalMonth",
      "outputs": [
        {
          "internalType": "uint256",
          "name": "",
          "type": "uint256"
        }
      ],
      "stateMutability": "view",
      "type": "function"
    },
    {
      "inputs": [],
      "name": "productArrivalYear",
      "outputs": [
        {
          "internalType": "uint256",
          "name": "",
          "type": "uint256"
        }
      ],
      "stateMutability": "view",
      "type": "function"
    },
    {
      "inputs": [],
      "name": "productExpiredDateInsertedOnChain",
      "outputs": [
        {
          "internalType": "uint256",
          "name": "",
          "type": "uint256"
        }
      ],
      "stateMutability": "view",
      "type": "function"
    },
    {
      "inputs": [],
      "name": "productExpiredDay",
      "outputs": [
        {
          "internalType": "uint256",
          "name": "",
          "type": "uint256"
        }
      ],
      "stateMutability": "view",
      "type": "function"
    },
    {
      "inputs": [],
      "name": "productExpiredMonth",
      "outputs": [
        {
          "internalType": "uint256",
          "name": "",
          "type": "uint256"
        }
      ],
      "stateMutability": "view",
      "type": "function"
    },
    {
      "inputs": [],
      "name": "productExpiredYear",
      "outputs": [
        {
          "internalType": "uint256",
          "name": "",
          "type": "uint256"
        }
      ],
      "stateMutability": "view",
      "type": "function"
    },
    {
      "inputs": [],
      "name": "supplyChainTitle",
      "outputs": [
        {
          "internalType": "string",
          "name": "",
          "type": "string"
        }
      ],
      "stateMutability": "view",
      "type": "function"
    },
    {
      "inputs": [
        {
          "internalType": "string",
          "name": "_chainName",
          "type": "string"
        },
        {
          "internalType": "string",
          "name": "_productName",
          "type": "string"
        },
        {
          "internalType": "string",
          "name": "_productImageLink",
          "type": "string"
        },
        {
          "internalType": "string",
          "name": "_ProductImageInforrmation",
          "type": "string"
        },
        {
          "internalType": "string",
          "name": "_chainLocation",
          "type": "string"
        },
        {
          "internalType": "string",
          "name": "_tagName",
          "type": "string"
        },
        {
          "internalType": "string",
          "name": "_tagInformation",
          "type": "string"
        },
        {
          "internalType": "string",
          "name": "_madeByCompanyName",
          "type": "string"
        },
        {
          "internalType": "string",
          "name": "_madeByCompanyLogoLink",
          "type": "string"
        },
        {
          "internalType": "string",
          "name": "_madeByCompanyInformation",
          "type": "string"
        },
        {
          "internalType": "string",
          "name": "_madeByCompanyLocation",
          "type": "string"
        }
      ],
      "name": "createChain",
      "outputs": [],
      "stateMutability": "nonpayable",
      "type": "function"
    },
    {
      "inputs": [
        {
          "internalType": "string",
          "name": "_madeWith",
          "type": "string"
        }
      ],
      "name": "insertMadeWith",
      "outputs": [],
      "stateMutability": "nonpayable",
      "type": "function"
    },
    {
      "inputs": [
        {
          "internalType": "uint8",
          "name": "day",
          "type": "uint8"
        },
        {
          "internalType": "uint8",
          "name": "month",
          "type": "uint8"
        },
        {
          "internalType": "uint16",
          "name": "year",
          "type": "uint16"
        }
      ],
      "name": "insertProductExpiredDate",
      "outputs": [],
      "stateMutability": "nonpayable",
      "type": "function"
    },
    {
      "inputs": [
        {
          "internalType": "uint8",
          "name": "day",
          "type": "uint8"
        },
        {
          "internalType": "uint8",
          "name": "month",
          "type": "uint8"
        },
        {
          "internalType": "uint16",
          "name": "year",
          "type": "uint16"
        }
      ],
      "name": "insertProductArrivalDate",
      "outputs": [],
      "stateMutability": "nonpayable",
      "type": "function"
    },
    {
      "inputs": [],
      "name": "setProductExpiredDateOnChain",
      "outputs": [],
      "stateMutability": "nonpayable",
      "type": "function"
    },
    {
      "inputs": [],
      "name": "setProductArrivalDateOnChain",
      "outputs": [],
      "stateMutability": "nonpayable",
      "type": "function"
    },
    {
      "inputs": [],
      "name": "getSummary",
      "outputs": [
        {
          "internalType": "uint256",
          "name": "",
          "type": "uint256"
        },
        {
          "internalType": "address",
          "name": "",
          "type": "address"
        },
        {
          "internalType": "string",
          "name": "",
          "type": "string"
        }
      ],
      "stateMutability": "view",
      "type": "function"
    }
  ],
  "bytecode": "0x60806040523480156200001157600080fd5b5060405162001d0d38038062001d0d8339818101604052810190620000379190620001d2565b80600090805190602001906200004f92919062000099565b5081600160006101000a81548173ffffffffffffffffffffffffffffffffffffffff021916908373ffffffffffffffffffffffffffffffffffffffff1602179055505050620003ab565b828054620000a790620002fd565b90600052602060002090601f016020900481019282620000cb576000855562000117565b82601f10620000e657805160ff191683800117855562000117565b8280016001018555821562000117579182015b8281111562000116578251825591602001919060010190620000f9565b5b5090506200012691906200012a565b5090565b5b80821115620001455760008160009055506001016200012b565b5090565b6000620001606200015a8462000260565b6200022c565b9050828152602081018484840111156200017957600080fd5b62000186848285620002c7565b509392505050565b6000815190506200019f8162000391565b92915050565b600082601f830112620001b757600080fd5b8151620001c984826020860162000149565b91505092915050565b60008060408385031215620001e657600080fd5b6000620001f6858286016200018e565b925050602083015167ffffffffffffffff8111156200021457600080fd5b6200022285828601620001a5565b9150509250929050565b6000604051905081810181811067ffffffffffffffff8211171562000256576200025562000362565b5b8060405250919050565b600067ffffffffffffffff8211156200027e576200027d62000362565b5b601f19601f8301169050602081019050919050565b6000620002a082620002a7565b9050919050565b600073ffffffffffffffffffffffffffffffffffffffff82169050919050565b60005b83811015620002e7578082015181840152602081019050620002ca565b83811115620002f7576000848401525b50505050565b600060028204905060018216806200031657607f821691505b602082108114156200032d576200032c62000333565b5b50919050565b7f4e487b7100000000000000000000000000000000000000000000000000000000600052602260045260246000fd5b7f4e487b7100000000000000000000000000000000000000000000000000000000600052604160045260246000fd5b6200039c8162000293565b8114620003a857600080fd5b50565b61195280620003bb6000396000f3fe608060405234801561001057600080fd5b50600436106101375760003560e01c8063a1a69109116100b8578063d2d72dac1161007c578063d2d72dac146102ff578063dd3a62a21461031d578063deb4ffb71461033b578063edf3c35214610359578063f5b9427e14610375578063fc9b5d141461039357610137565b8063a1a6910914610268578063a561870014610286578063bc1e8d1f14610290578063bd06c613146102ae578063c36e3bd0146102cc57610137565b80637b681f31116100ff5780637b681f31146101d857806382d10b0d146101f657806388561d6714610212578063923e68211461022e57806396ca41601461024a57610137565b806324d420b81461013c5780632df6b0cb1461015a5780634051ddac146101785780635105b02614610198578063550325b5146101a2575b600080fd5b6101446103b1565b60405161015191906116b5565b60405180910390f35b6101626103b7565b60405161016f9190611577565b60405180910390f35b6101806103dd565b60405161018f939291906116d0565b60405180910390f35b6101a06104a4565b005b6101bc60048036038101906101b79190611499565b61050c565b6040516101cf9796959493929190611615565b60405180910390f35b6101e0610916565b6040516101ed91906116b5565b60405180910390f35b610210600480360381019061020b91906114c2565b61091c565b005b61022c60048036038101906102279190611260565b6109a2565b005b610248600480360381019061024391906114c2565b610a22565b005b610252610aa8565b60405161025f91906116b5565b60405180910390f35b610270610aae565b60405161027d91906116b5565b60405180910390f35b61028e610ab4565b005b610298610b1c565b6040516102a59190611592565b60405180910390f35b6102b6610baa565b6040516102c391906116b5565b60405180910390f35b6102e660048036038101906102e19190611499565b610bb0565b6040516102f694939291906115b4565b60405180910390f35b610307610e10565b60405161031491906116b5565b60405180910390f35b610325610e16565b60405161033291906116b5565b60405180910390f35b610343610e1c565b60405161035091906116b5565b60405180910390f35b610373600480360381019061036e91906112a1565b610e22565b005b61037d611082565b60405161038a9190611592565b60405180910390f35b61039b611110565b6040516103a891906116b5565b60405180910390f35b600b5481565b600160009054906101000a900473ffffffffffffffffffffffffffffffffffffffff1681565b6000806060600c80549050600160009054906101000a900473ffffffffffffffffffffffffffffffffffffffff16600080805461041990611836565b80601f016020809104026020016040519081016040528092919081815260200182805461044590611836565b80156104925780601f1061046757610100808354040283529160200191610492565b820191906000526020600020905b81548152906001019060200180831161047557829003601f168201915b50505050509050925092509250909192565b600160009054906101000a900473ffffffffffffffffffffffffffffffffffffffff1673ffffffffffffffffffffffffffffffffffffffff163373ffffffffffffffffffffffffffffffffffffffff16146104fe57600080fd5b600c80549050600381905550565b600c818154811061051c57600080fd5b906000526020600020906007020160009150905080600001805461053f90611836565b80601f016020809104026020016040519081016040528092919081815260200182805461056b90611836565b80156105b85780601f1061058d576101008083540402835291602001916105b8565b820191906000526020600020905b81548152906001019060200180831161059b57829003601f168201915b5050505050908060010180546105cd90611836565b80601f01602080910402602001604051908101604052809291908181526020018280546105f990611836565b80156106465780601f1061061b57610100808354040283529160200191610646565b820191906000526020600020905b81548152906001019060200180831161062957829003601f168201915b50505050509080600201805461065b90611836565b80601f016020809104026020016040519081016040528092919081815260200182805461068790611836565b80156106d45780601f106106a9576101008083540402835291602001916106d4565b820191906000526020600020905b8154815290600101906020018083116106b757829003601f168201915b5050505050908060030180546106e990611836565b80601f016020809104026020016040519081016040528092919081815260200182805461071590611836565b80156107625780601f1061073757610100808354040283529160200191610762565b820191906000526020600020905b81548152906001019060200180831161074557829003601f168201915b50505050509080600401805461077790611836565b80601f01602080910402602001604051908101604052809291908181526020018280546107a390611836565b80156107f05780601f106107c5576101008083540402835291602001916107f0565b820191906000526020600020905b8154815290600101906020018083116107d357829003601f168201915b50505050509080600501805461080590611836565b80601f016020809104026020016040519081016040528092919081815260200182805461083190611836565b801561087e5780601f106108535761010080835404028352916020019161087e565b820191906000526020600020905b81548152906001019060200180831161086157829003601f168201915b50505050509080600601805461089390611836565b80601f01602080910402602001604051908101604052809291908181526020018280546108bf90611836565b801561090c5780601f106108e15761010080835404028352916020019161090c565b820191906000526020600020905b8154815290600101906020018083116108ef57829003601f168201915b5050505050905087565b60055481565b600160009054906101000a900473ffffffffffffffffffffffffffffffffffffffff1673ffffffffffffffffffffffffffffffffffffffff163373ffffffffffffffffffffffffffffffffffffffff161461097657600080fd5b8260ff166006819055508160ff166007819055508061ffff1660088190555061099d610ab4565b505050565b600160009054906101000a900473ffffffffffffffffffffffffffffffffffffffff1673ffffffffffffffffffffffffffffffffffffffff163373ffffffffffffffffffffffffffffffffffffffff16146109fc57600080fd5b8060049080519060200190610a12929190611116565b50600c8054905060058190555050565b600160009054906101000a900473ffffffffffffffffffffffffffffffffffffffff1673ffffffffffffffffffffffffffffffffffffffff163373ffffffffffffffffffffffffffffffffffffffff1614610a7c57600080fd5b8260ff166009819055508160ff16600a819055508061ffff16600b81905550610aa36104a4565b505050565b60025481565b60065481565b600160009054906101000a900473ffffffffffffffffffffffffffffffffffffffff1673ffffffffffffffffffffffffffffffffffffffff163373ffffffffffffffffffffffffffffffffffffffff1614610b0e57600080fd5b600c80549050600281905550565b60048054610b2990611836565b80601f0160208091040260200160405190810160405280929190818152602001828054610b5590611836565b8015610ba25780601f10610b7757610100808354040283529160200191610ba2565b820191906000526020600020905b815481529060010190602001808311610b8557829003601f168201915b505050505081565b60085481565b600d8181548110610bc057600080fd5b9060005260206000209060040201600091509050806000018054610be390611836565b80601f0160208091040260200160405190810160405280929190818152602001828054610c0f90611836565b8015610c5c5780601f10610c3157610100808354040283529160200191610c5c565b820191906000526020600020905b815481529060010190602001808311610c3f57829003601f168201915b505050505090806001018054610c7190611836565b80601f0160208091040260200160405190810160405280929190818152602001828054610c9d90611836565b8015610cea5780601f10610cbf57610100808354040283529160200191610cea565b820191906000526020600020905b815481529060010190602001808311610ccd57829003601f168201915b505050505090806002018054610cff90611836565b80601f0160208091040260200160405190810160405280929190818152602001828054610d2b90611836565b8015610d785780601f10610d4d57610100808354040283529160200191610d78565b820191906000526020600020905b815481529060010190602001808311610d5b57829003601f168201915b505050505090806003018054610d8d90611836565b80601f0160208091040260200160405190810160405280929190818152602001828054610db990611836565b8015610e065780601f10610ddb57610100808354040283529160200191610e06565b820191906000526020600020905b815481529060010190602001808311610de957829003601f168201915b5050505050905084565b600a5481565b60095481565b60075481565b600160009054906101000a900473ffffffffffffffffffffffffffffffffffffffff1673ffffffffffffffffffffffffffffffffffffffff163373ffffffffffffffffffffffffffffffffffffffff1614610e7c57600080fd5b60006040518060e001604052808d81526020018c81526020018b81526020018a8152602001898152602001888152602001878152509050600c8190806001815401808255809150506001900390600052602060002090600702016000909190919091506000820151816000019080519060200190610efb929190611116565b506020820151816001019080519060200190610f18929190611116565b506040820151816002019080519060200190610f35929190611116565b506060820151816003019080519060200190610f52929190611116565b506080820151816004019080519060200190610f6f929190611116565b5060a0820151816005019080519060200190610f8c929190611116565b5060c0820151816006019080519060200190610fa9929190611116565b50505060006040518060800160405280878152602001868152602001858152602001848152509050600d8190806001815401808255809150506001900390600052602060002090600402016000909190919091506000820151816000019080519060200190611019929190611116565b506020820151816001019080519060200190611036929190611116565b506040820151816002019080519060200190611053929190611116565b506060820151816003019080519060200190611070929190611116565b50505050505050505050505050505050565b6000805461108f90611836565b80601f01602080910402602001604051908101604052809291908181526020018280546110bb90611836565b80156111085780601f106110dd57610100808354040283529160200191611108565b820191906000526020600020905b8154815290600101906020018083116110eb57829003601f168201915b505050505081565b60035481565b82805461112290611836565b90600052602060002090601f016020900481019282611144576000855561118b565b82601f1061115d57805160ff191683800117855561118b565b8280016001018555821561118b579182015b8281111561118a57825182559160200191906001019061116f565b5b509050611198919061119c565b5090565b5b808211156111b557600081600090555060010161119d565b5090565b60006111cc6111c78461173f565b61170e565b9050828152602081018484840111156111e457600080fd5b6111ef8482856117f4565b509392505050565b600082601f83011261120857600080fd5b81356112188482602086016111b9565b91505092915050565b600081359050611230816118d7565b92915050565b600081359050611245816118ee565b92915050565b60008135905061125a81611905565b92915050565b60006020828403121561127257600080fd5b600082013567ffffffffffffffff81111561128c57600080fd5b611298848285016111f7565b91505092915050565b60008060008060008060008060008060006101608c8e0312156112c357600080fd5b60008c013567ffffffffffffffff8111156112dd57600080fd5b6112e98e828f016111f7565b9b505060208c013567ffffffffffffffff81111561130657600080fd5b6113128e828f016111f7565b9a505060408c013567ffffffffffffffff81111561132f57600080fd5b61133b8e828f016111f7565b99505060608c013567ffffffffffffffff81111561135857600080fd5b6113648e828f016111f7565b98505060808c013567ffffffffffffffff81111561138157600080fd5b61138d8e828f016111f7565b97505060a08c013567ffffffffffffffff8111156113aa57600080fd5b6113b68e828f016111f7565b96505060c08c013567ffffffffffffffff8111156113d357600080fd5b6113df8e828f016111f7565b95505060e08c013567ffffffffffffffff8111156113fc57600080fd5b6114088e828f016111f7565b9450506101008c013567ffffffffffffffff81111561142657600080fd5b6114328e828f016111f7565b9350506101208c013567ffffffffffffffff81111561145057600080fd5b61145c8e828f016111f7565b9250506101408c013567ffffffffffffffff81111561147a57600080fd5b6114868e828f016111f7565b9150509295989b509295989b9093969950565b6000602082840312156114ab57600080fd5b60006114b984828501611236565b91505092915050565b6000806000606084860312156114d757600080fd5b60006114e58682870161124b565b93505060206114f68682870161124b565b925050604061150786828701611221565b9150509250925092565b61151a8161179d565b82525050565b6115298161178b565b82525050565b600061153a8261176f565b611544818561177a565b9350611554818560208601611803565b61155d816118c6565b840191505092915050565b611571816117dd565b82525050565b600060208201905061158c6000830184611511565b92915050565b600060208201905081810360008301526115ac818461152f565b905092915050565b600060808201905081810360008301526115ce818761152f565b905081810360208301526115e2818661152f565b905081810360408301526115f6818561152f565b9050818103606083015261160a818461152f565b905095945050505050565b600060e082019050818103600083015261162f818a61152f565b90508181036020830152611643818961152f565b90508181036040830152611657818861152f565b9050818103606083015261166b818761152f565b9050818103608083015261167f818661152f565b905081810360a0830152611693818561152f565b905081810360c08301526116a7818461152f565b905098975050505050505050565b60006020820190506116ca6000830184611568565b92915050565b60006060820190506116e56000830186611568565b6116f26020830185611520565b8181036040830152611704818461152f565b9050949350505050565b6000604051905081810181811067ffffffffffffffff8211171561173557611734611897565b5b8060405250919050565b600067ffffffffffffffff82111561175a57611759611897565b5b601f19601f8301169050602081019050919050565b600081519050919050565b600082825260208201905092915050565b6000611796826117bd565b9050919050565b60006117a8826117bd565b9050919050565b600061ffff82169050919050565b600073ffffffffffffffffffffffffffffffffffffffff82169050919050565b6000819050919050565b600060ff82169050919050565b82818337600083830152505050565b60005b83811015611821578082015181840152602081019050611806565b83811115611830576000848401525b50505050565b6000600282049050600182168061184e57607f821691505b6020821081141561186257611861611868565b5b50919050565b7f4e487b7100000000000000000000000000000000000000000000000000000000600052602260045260246000fd5b7f4e487b7100000000000000000000000000000000000000000000000000000000600052604160045260246000fd5b6000601f19601f8301169050919050565b6118e0816117af565b81146118eb57600080fd5b50565b6118f7816117dd565b811461190257600080fd5b50565b61190e816117e7565b811461191957600080fd5b5056fea26469706673582212206ea4eebaa53714d8f2c1ef02d85c2c428a96a555db9ce240311c7c64e23a03e464736f6c63430008000033",
  "immutableReferences": {},
  "source": "// SPDX-License-Identifier: GPL-3.0\npragma solidity >=0.7.0 <0.9.0;\n\ncontract SupplyChainFactory {\n    address[] public deployedSupplyChain;\n\n    function createSupplyChain(string memory _supplyChainTitle) public {\n        FoodSupplyChain newSupplyChain = new FoodSupplyChain(\n            msg.sender,\n            _supplyChainTitle\n        );\n\n        deployedSupplyChain.push(address(newSupplyChain));\n    }\n\n    function getDeployedSupplyChain() public view returns (address[] memory) {\n        return deployedSupplyChain;\n    }\n}\n\ncontract FoodSupplyChain {\n    string public supplyChainTitle;\n    address payable public manufactureAddress;\n    uint256 public productExpiredDateInsertedOnChain;\n    uint256 public productArrivalDateInsertedOnChain;\n    string public madeWith;\n    uint256 public madeWithInsertedOnChain;\n\n    uint256 public productExpiredDay;\n    uint256 public productExpiredMonth;\n    uint256 public productExpiredYear;\n\n    uint256 public productArrivalDay;\n    uint256 public productArrivalMonth;\n    uint256 public productArrivalYear;\n\n    struct Chain {\n        string chainName;\n        string productName;\n        string productImageLink;\n        string ProductImageInformation;\n        string chainLocation;\n        string tagName;\n        string tagInformation;\n    }\n    Chain[] public chains;\n\n    struct CompanyInformation {\n        string madeByCompanyName;\n        string madeByCompanyLogoLink;\n        string madeByCompanyInformation;\n        string madeByCompanyLocation;\n    }\n    CompanyInformation[] public companyInformations;\n\n    modifier restrictedOnlyForManufacture() {\n        require(msg.sender == manufactureAddress);\n        _;\n    }\n\n    constructor(address manager, string memory _supplyChainTitle) {\n        supplyChainTitle = _supplyChainTitle;\n        manufactureAddress = payable(manager);\n    }\n\n    /*\n        Insert data by Manufacture \n    */\n    function createChain(\n        string memory _chainName,\n        string memory _productName,\n        string memory _productImageLink,\n        string memory _ProductImageInforrmation,\n        string memory _chainLocation,\n        string memory _tagName,\n        string memory _tagInformation,\n        string memory _madeByCompanyName,\n        string memory _madeByCompanyLogoLink,\n        string memory _madeByCompanyInformation,\n        string memory _madeByCompanyLocation\n    ) public restrictedOnlyForManufacture {\n        Chain memory newChain = Chain({\n            chainName: _chainName,\n            productName: _productName,\n            productImageLink: _productImageLink,\n            ProductImageInformation: _ProductImageInforrmation,\n            chainLocation: _chainLocation,\n            tagName: _tagName,\n            tagInformation: _tagInformation\n        });\n\n        chains.push(newChain);\n\n        CompanyInformation memory newCompanyInformation = CompanyInformation({\n            madeByCompanyName: _madeByCompanyName,\n            madeByCompanyLogoLink: _madeByCompanyLogoLink,\n            madeByCompanyInformation: _madeByCompanyInformation,\n            madeByCompanyLocation: _madeByCompanyLocation\n        });\n\n        companyInformations.push(newCompanyInformation);\n    }\n\n    function insertMadeWith(string memory _madeWith)\n        public\n        restrictedOnlyForManufacture\n    {\n        madeWith = _madeWith;\n        madeWithInsertedOnChain = chains.length;\n    }\n\n    function insertProductExpiredDate(\n        uint8 day,\n        uint8 month,\n        uint16 year\n    ) public restrictedOnlyForManufacture {\n        productExpiredDay = day;\n        productExpiredMonth = month;\n        productExpiredYear = year;\n        setProductExpiredDateOnChain();\n    }\n\n    function insertProductArrivalDate(\n        uint8 day,\n        uint8 month,\n        uint16 year\n    ) public restrictedOnlyForManufacture {\n        productArrivalDay = day;\n        productArrivalMonth = month;\n        productArrivalYear = year;\n        setProductArrivalDateOnChain();\n    }\n\n    function setProductExpiredDateOnChain()\n        public\n        restrictedOnlyForManufacture\n    {\n        productExpiredDateInsertedOnChain = chains.length;\n    }\n\n    function setProductArrivalDateOnChain()\n        public\n        restrictedOnlyForManufacture\n    {\n        productArrivalDateInsertedOnChain = chains.length;\n    }\n\n    function getSummary()\n        public\n        view\n        returns (\n            uint256,\n            address,\n            string memory\n        )\n    {\n        return (chains.length, manufactureAddress, supplyChainTitle);\n    }\n\n    /*\n        Destroy Contract by Manufacture\n    */\n    /*function destroyContract() public restrictedOnlyForManufacture{\n        //\n        //    sending all funds to the manager public account \n        //\n        selfdestruct( manufactureAddress );\n    }*/\n}\n",
  "sourcePath": "/Users/mvtejaxlrai/Desktop/foodsupply/contracts/FoodChainFactory.sol",
  "compiler": {
    "name": "solc",
    "version": "0.8.0+commit.c7dfd78e.Emscripten.clang"
  },
  "schemaVersion": "3.4.3",
  "updatedAt": "2021-09-10T09:13:15.077Z",
  "devdoc": {
    "kind": "dev",
    "methods": {},
    "version": 1
  },
  "userdoc": {
    "kind": "user",
    "methods": {},
    "version": 1
  }
}